:020000040000fa
:080000000002040000000000f2
:020000040000fa
:04000800c80200002a
:020000040000fa
:04000c00c802000026
:020000040000fa
:04001000c802000022
:020000040000fa
:04001400c80200001e
:020000040000fa
:04001800c80200001a
:020000040000fa
:04001c00c802000016
:020000040000fa
:04002000c802000012
:020000040000fa
:04002400c80200000e
:020000040000fa
:04002800c80200000a
:020000040000fa
:04002c00c802000006
:020000040000fa
:04003000c802000002
:020000040000fa
:04003400c8020000fe
:020000040000fa
:04003800c8020000fa
:020000040000fa
:04003c00c8020000f6
:020000040000fa
:04004000c8020000f2
:020000040000fa
:04004400c8020000ee
:020000040000fa
:04004800c8020000ea
:020000040000fa
:04004c00c8020000e6
:020000040000fa
:04005000c8020000e2
:020000040000fa
:04005400c8020000de
:020000040000fa
:04005800c8020000da
:020000040000fa
:04005c00c8020000d6
:020000040000fa
:04006000c8020000d2
:020000040000fa
:04006400c8020000ce
:020000040000fa
:04006800c8020000ca
:020000040000fa
:04006c00c8020000c6
:020000040000fa
:04007000c8020000c2
:020000040000fa
:04007400c8020000be
:020000040000fa
:04007800c8020000ba
:020000040000fa
:04007c00c8020000b6
:020000040000fa
:04008000c8020000b2
:020000040000fa
:04008400c8020000ae
:020000040000fa
:04008800c8020000aa
:020000040000fa
:04008c00c8020000a6
:020000040000fa
:04009000c8020000a2
:020000040000fa
:04009400c80200009e
:020000040000fa
:04009800c80200009a
:020000040000fa
:04009c00c802000096
:020000040000fa
:0400a000c802000092
:020000040000fa
:0400a400c80200008e
:020000040000fa
:0400a800c80200008a
:020000040000fa
:0400ac00c802000086
:020000040000fa
:0400b000c802000082
:020000040000fa
:0400b400c80200007e
:020000040000fa
:0400b800c80200007a
:020000040000fa
:0400bc00c802000076
:020000040000fa
:0400c000c802000072
:020000040000fa
:0400c400c80200006e
:020000040000fa
:0400c800c80200006a
:020000040000fa
:0400cc00c802000066
:020000040000fa
:0400d000c802000062
:020000040000fa
:0400d400c80200005e
:020000040000fa
:0400d800c80200005a
:020000040000fa
:0400dc00c802000056
:020000040000fa
:0400e000c802000052
:020000040000fa
:0400e400c80200004e
:020000040000fa
:0400e800c80200004a
:020000040000fa
:0400ec00c802000046
:020000040000fa
:0400f000c802000042
:020000040000fa
:0400f400c80200003e
:020000040000fa
:0400f800c80200003a
:020000040000fa
:0400fc00c802000036
:020000040000fa
:04010000c802000031
:020000040000fa
:04010400c80200002d
:020000040000fa
:04010800c802000029
:020000040000fa
:04010c00c802000025
:020000040000fa
:04011000c802000021
:020000040000fa
:04011400c80200001d
:020000040000fa
:04011800c802000019
:020000040000fa
:04011c00c802000015
:020000040000fa
:04012000c802000011
:020000040000fa
:04012400c80200000d
:020000040000fa
:04012800c802000009
:020000040000fa
:04012c00c802000005
:020000040000fa
:04013000c802000001
:020000040000fa
:04013400c8020000fd
:020000040000fa
:04013800c8020000f9
:020000040000fa
:04013c00c8020000f5
:020000040000fa
:04014000c8020000f1
:020000040000fa
:04014400c8020000ed
:020000040000fa
:04014800c8020000e9
:020000040000fa
:04020800c802000028
:020000040000fa
:04020c00c802000024
:020000040000fa
:04021000c802000020
:020000040000fa
:04021400c80200001c
:020000040000fa
:04021800c802000018
:020000040000fa
:04021c00c802000014
:020000040000fa
:04022000c802000010
:020000040000fa
:04022400c80200000c
:020000040000fa
:04022800c802000008
:020000040000fa
:04022c00c802000004
:020000040000fa
:04023000c802000000
:020000040000fa
:04023400c8020000fc
:020000040000fa
:04023800c8020000f8
:020000040000fa
:04023c00c8020000f4
:020000040000fa
:04024000c8020000f0
:020000040000fa
:04024400c8020000ec
:020000040000fa
:04024800c8020000e8
:020000040000fa
:04024c00c8020000e4
:020000040000fa
:04025000c8020000e0
:020000040000fa
:04025400c8020000dc
:020000040000fa
:04025800c8020000d8
:020000040000fa
:04025c00c8020000d4
:020000040000fa
:04026000c8020000d0
:020000040000fa
:04026400c8020000cc
:020000040000fa
:04026800c8020000c8
:020000040000fa
:04026c00c8020000c4
:020000040000fa
:04027000c8020000c0
:020000040000fa
:04027400c8020000bc
:020000040000fa
:04027800c8020000b8
:020000040000fa
:04027c00c8020000b4
:020000040000fa
:04028000c8020000b0
:020000040000fa
:04028400c8020000ac
:020000040000fa
:04028800c8020000a8
:020000040000fa
:04028c00c8020000a4
:020000040000fa
:04029000c8020000a0
:020000040000fa
:04029400c80200009c
:020000040000fa
:04029800c802000098
:020000040000fa
:04029c00c802000094
:020000040000fa
:0402a000c802000090
:020000040000fa
:0402a400c80200008c
:020000040000fa
:0402a800c802000088
:020000040000fa
:0402ac00c802000084
:020000040000fa
:0402b000c802000080
:020000040000fa
:0402b400c80200007c
:020000040000fa
:0402b800c802000078
:020000040000fa
:0402bc00c802000074
:020000040000fa
:0402c000c802000070
:020000040000fa
:0402c400c80200006c
:020000040000fa
:0402c800c802000068
:020000040000fa
:0402cc00c802000064
:020000040000fa
:0402d000c802000060
:020000040000fa
:0402d400c80200005c
:020000040000fa
:0402d800c802000058
:020000040000fa
:0402dc00c802000054
:020000040000fa
:0402e000c802000050
:020000040000fa
:0402e400c80200004c
:020000040000fa
:0402e800c802000048
:020000040000fa
:0402ec00c802000044
:020000040000fa
:0402f000c802000040
:020000040000fa
:0402f400c80200003c
:020000040000fa
:0402f800c802000038
:020000040000fa
:0402fc00c802000034
:020000040000fa
:04030000c80200002f
:020000040000fa
:04030400c80200002b
:020000040000fa
:04030800c802000027
:020000040000fa
:04030c00c802000023
:020000040000fa
:04031000c80200001f
:020000040000fa
:04031400c80200001b
:020000040000fa
:04031800c802000017
:020000040000fa
:04031c00c802000013
:020000040000fa
:04032000c80200000f
:020000040000fa
:04032400c80200000b
:020000040000fa
:04032800c802000007
:020000040000fa
:04032c00c802000003
:020000040000fa
:04033000c8020000ff
:020000040000fa
:04033400c8020000fb
:020000040000fa
:04033800c8020000f7
:020000040000fa
:04033c00c8020000f3
:020000040000fa
:04034000c8020000ef
:020000040000fa
:04034400c8020000eb
:020000040000fa
:04034800c8020000e7
:020000040000fa
:100400000f8020000e7f22000e01880000000000f7
:10041000000020000000e000020032000001200087
:1004200020028800140007005b0007000000e000c5
:1004300003003a0000002000010020000200370005
:100440000000200001002000810f70000100320038
:1004500014000700000020000000e000020032004d
:1004600000000200000000001e0502000000000065
:100470000040da000000fe004440a9000000200017
:100480000000e0000300320000002000a00188000e
:100490004440a800000006008a1f78008b1f7800e7
:1004a0000000060091018800800478000000eb0045
:1004b0001a003700e284440032a0b4009905ba0063
:1004c000e284440032a0b4009906ba00e2844400f9
:1004d00032a0b4000006eb00476fde00fd07b2005b
:1004e000636ce10003003a00ebff07000000eb0043
:1004f0000a003700606ce10004003a00005deb0088
:100500008b05e900fdff3e00040037006168e10053
:10051000010032000086eb000b00070019c7ba008b
:100520001905ba000e04e00003003a000a00e000da
:10053000e0ff3a0000000600fe07b2009e018800be
:100540008a047800f5ff3700395dba008b05e900b1
:100550000c003200295dba008b05e900080032006a
:100560000c00e00003003a00e284440032a0b40032
:10057000f5ff370019ddba008b05e900faff3a00f4
:100580008904e800e184440032a0b40000000600c1
:0c0590000040da000000fe000000050042
:020000040000fa
:10059c000000fa00213a8000f08f2f0000806000ec
:1005ac00203a8800f0ff29006019880000002f0015
:1005bc0040168800c0ff2000601688000080fa00fa
:1005cc00000006000400fa00004f780011079800a4
:1005dc0061168000f0ff200001007000601688009a
:1005ec001e00fb006101b90020fd2f00f1ff2f0060
:1005fc0002004000838048006203200003002000ba
:10060c00820f5000838f58008d003e000060010067
:10061c00860037008a003700340037003800370076
:10062c003c003700400037004400370048003700da
:10063c004c0037005000370054003700580037008a
:10064c007f0037007e0037007d0037007c003700cc
:10065c007b0037007a0037007900370055003700ef
:10066c00770037005d0037007500370065003700f4
:10067c0069003700720037007100370070003700d6
:10068c006f0037006e0037006d0037006c003700cc
:10069c006b0037006a0037006900370068003700cc
:1006ac0067003700660037006500370064003700cc
:1006bc0063003700620037006100370060003700cc
:1006cc005f0037005e0037005d0037005c003700cc
:1006dc005b0037005a0037005900370058003700cc
:1006ec003900370056003700410037006116800092
:1006fc00c0002f0000806000601688005200370098
:10070c0061168000c0272f000080600060168800f2
:10071c004d0037006116800040092f0000806000fa
:10072c0060168800480037006116800040032f00d7
:10073c00008060006016880043003700611680005e
:10074c0040262f0000806000601688003e003700b5
:10075c006116800040122f00008060006016880037
:10076c00390037006116800040102f0000806000b7
:10077c00601688003400370061168000c0072f0017
:10078c0000806000601688002f0037006116800022
:10079c0040002f0000806000601688002a0037009f
:1007ac006116800040022f000080600060168800f7
:1007bc00250037006116800040042f000080600087
:1007cc0060168800200037006116800040302f0032
:1007dc0000806000601688001b00370061168000e6
:1007ec00c0182f00008060006016880016003700cb
:1007fc006116800040212f00008060006016880088
:10080c00110037006116800040182f000080600036
:10081c00601688000c00370061168000401c2f0009
:10082c0000806000601688000700370061168000a9
:10083c00b03f2f0000806000601688000200370077
:10084c0060168000601688001e009000e10f5000ba
:10085c0004003a006016800000b0a000601688000a
:10086c00030037006016800000a0a000601688000e
:10087c000080fa00000006000400fa00100798003f
:10088c000000eb00000f78000000eb00000f780078
:10089c0002003700740007001e0fe8001e009000d5
:1008ac009e007800808f5000faff34000080fa0020
:1008bc00000006000000fa008000eb0000c3b3004b
:1008cc0040ff0700007d2000ebff07001100200017
:1008dc0010c3b3003bff0700803e2000e6ff07007b
:1008ec008000eb0020c3b30036ff0700803e2000e1
:1008fc00e1ff07001100200030c3b30031ff0700f7
:10090c00803e2000dcff07008000eb0040c3b300fa
:10091c002cff0700803e2000d7ff070011002000ad
:10092c0050c3b30027ff0700803e2000d2ff070012
:10093c008000eb0060c3b30022ff0700803e200064
:10094c00cdff07001100200070c3b3001dff07008e
:10095c00803e2000c8ff07008000eb0080c3b3007e
:10096c0018ff0700803e2000c3ff07001100200085
:10097c0090c3b30013ff0700803e2000beff0700aa
:10098c008000eb0010c4b3000eff0700803e200077
:10099c00b9ff07001100200020c6b30009ff0700b3
:1009ac00803e2000b4ff07008000eb0030c4b30091
:1009bc0004ff0700803e2000afff0700110020005d
:1009cc0040c6b300fffe0700803e2000aaff0700d0
:1009dc008000eb0050c4b300fafe0700803e2000fc
:1009ec00a5ff07001100200060c4b300f5fe07004e
:1009fc00803e2000a0ff07008000eb00e0c2b300a7
:100a0c00f0fe0700803e20009bff07000080fa00ec
:100a1c00000006000000fa00213a8000f08f2f0041
:100a2c0000806000203a88000080fa000000060078
:100a3c000000fa00f7ff0700d5fe070011002000a8
:100a4c0010c3b300dffe0700803e20008aff0700c2
:100a5c00faff3700793e0900000000003906090052
:100a6c0000000000000006000a0009000000000061
:040a7c000000060070
:020000040000fa
:020000040001f9
:0457f8000ff90000a5
:020000040000fa
:020000040001f9
:0457fc007f3f0000eb
:00000001FF
