:020000040000fa
:080000000002040000000000f2
:020000040000fa
:04000800c80200002a
:020000040000fa
:04000c00c802000026
:020000040000fa
:04001000c802000022
:020000040000fa
:04001400c80200001e
:020000040000fa
:04001800c80200001a
:020000040000fa
:04001c00c802000016
:020000040000fa
:04002000c802000012
:020000040000fa
:04002400c80200000e
:020000040000fa
:04002800c80200000a
:020000040000fa
:04002c00c802000006
:020000040000fa
:04003000c802000002
:020000040000fa
:04003400c8020000fe
:020000040000fa
:04003800c8020000fa
:020000040000fa
:04003c00c8020000f6
:020000040000fa
:04004000c8020000f2
:020000040000fa
:04004400c8020000ee
:020000040000fa
:04004800c8020000ea
:020000040000fa
:04004c00c8020000e6
:020000040000fa
:04005000c8020000e2
:020000040000fa
:04005400c8020000de
:020000040000fa
:04005800c8020000da
:020000040000fa
:04005c00c8020000d6
:020000040000fa
:04006000c8020000d2
:020000040000fa
:04006400c8020000ce
:020000040000fa
:04006800c8020000ca
:020000040000fa
:04006c00c8020000c6
:020000040000fa
:04007000c8020000c2
:020000040000fa
:04007400c8020000be
:020000040000fa
:04007800c8020000ba
:020000040000fa
:04007c00c8020000b6
:020000040000fa
:04008000c8020000b2
:020000040000fa
:04008400c8020000ae
:020000040000fa
:04008800c8020000aa
:020000040000fa
:04008c00c8020000a6
:020000040000fa
:04009000c8020000a2
:020000040000fa
:04009400c80200009e
:020000040000fa
:04009800c80200009a
:020000040000fa
:04009c00c802000096
:020000040000fa
:0400a000c802000092
:020000040000fa
:0400a400c80200008e
:020000040000fa
:0400a800c80200008a
:020000040000fa
:0400ac00c802000086
:020000040000fa
:0400b000c802000082
:020000040000fa
:0400b400c80200007e
:020000040000fa
:0400b800c80200007a
:020000040000fa
:0400bc00c802000076
:020000040000fa
:0400c000c802000072
:020000040000fa
:0400c400c80200006e
:020000040000fa
:0400c800c80200006a
:020000040000fa
:0400cc00c802000066
:020000040000fa
:0400d000c802000062
:020000040000fa
:0400d400c80200005e
:020000040000fa
:0400d800c80200005a
:020000040000fa
:0400dc00c802000056
:020000040000fa
:0400e000c802000052
:020000040000fa
:0400e400c80200004e
:020000040000fa
:0400e800c80200004a
:020000040000fa
:0400ec00c802000046
:020000040000fa
:0400f000c802000042
:020000040000fa
:0400f400c80200003e
:020000040000fa
:0400f800c80200003a
:020000040000fa
:0400fc00c802000036
:020000040000fa
:04010000c802000031
:020000040000fa
:04010400c80200002d
:020000040000fa
:04010800c802000029
:020000040000fa
:04010c00c802000025
:020000040000fa
:04011000c802000021
:020000040000fa
:04011400c80200001d
:020000040000fa
:04011800c802000019
:020000040000fa
:04011c00c802000015
:020000040000fa
:04012000c802000011
:020000040000fa
:04012400c80200000d
:020000040000fa
:04012800c802000009
:020000040000fa
:04012c00c802000005
:020000040000fa
:04013000c802000001
:020000040000fa
:04013400c8020000fd
:020000040000fa
:04013800c8020000f9
:020000040000fa
:04013c00c8020000f5
:020000040000fa
:04014000c8020000f1
:020000040000fa
:04014400c8020000ed
:020000040000fa
:04014800c8020000e9
:020000040000fa
:04020800c802000028
:020000040000fa
:04020c00c802000024
:020000040000fa
:04021000c802000020
:020000040000fa
:04021400c80200001c
:020000040000fa
:04021800c802000018
:020000040000fa
:04021c00c802000014
:020000040000fa
:04022000c802000010
:020000040000fa
:04022400c80200000c
:020000040000fa
:04022800c802000008
:020000040000fa
:04022c00c802000004
:020000040000fa
:04023000c802000000
:020000040000fa
:04023400c8020000fc
:020000040000fa
:04023800c8020000f8
:020000040000fa
:04023c00c8020000f4
:020000040000fa
:04024000c8020000f0
:020000040000fa
:04024400c8020000ec
:020000040000fa
:04024800c8020000e8
:020000040000fa
:04024c00c8020000e4
:020000040000fa
:04025000c8020000e0
:020000040000fa
:04025400c8020000dc
:020000040000fa
:04025800c8020000d8
:020000040000fa
:04025c00c8020000d4
:020000040000fa
:04026000c8020000d0
:020000040000fa
:04026400c8020000cc
:020000040000fa
:04026800c8020000c8
:020000040000fa
:04026c00c8020000c4
:020000040000fa
:04027000c8020000c0
:020000040000fa
:04027400c8020000bc
:020000040000fa
:04027800c8020000b8
:020000040000fa
:04027c00c8020000b4
:020000040000fa
:04028000c8020000b0
:020000040000fa
:04028400c8020000ac
:020000040000fa
:04028800c8020000a8
:020000040000fa
:04028c00c8020000a4
:020000040000fa
:04029000c8020000a0
:020000040000fa
:04029400c80200009c
:020000040000fa
:04029800c802000098
:020000040000fa
:04029c00c802000094
:020000040000fa
:0402a000c802000090
:020000040000fa
:0402a400c80200008c
:020000040000fa
:0402a800c802000088
:020000040000fa
:0402ac00c802000084
:020000040000fa
:0402b000c802000080
:020000040000fa
:0402b400c80200007c
:020000040000fa
:0402b800c802000078
:020000040000fa
:0402bc00c802000074
:020000040000fa
:0402c000c802000070
:020000040000fa
:0402c400c80200006c
:020000040000fa
:0402c800c802000068
:020000040000fa
:0402cc00c802000064
:020000040000fa
:0402d000c802000060
:020000040000fa
:0402d400c80200005c
:020000040000fa
:0402d800c802000058
:020000040000fa
:0402dc00c802000054
:020000040000fa
:0402e000c802000050
:020000040000fa
:0402e400c80200004c
:020000040000fa
:0402e800c802000048
:020000040000fa
:0402ec00c802000044
:020000040000fa
:0402f000c802000040
:020000040000fa
:0402f400c80200003c
:020000040000fa
:0402f800c802000038
:020000040000fa
:0402fc00c802000034
:020000040000fa
:04030000c80200002f
:020000040000fa
:04030400c80200002b
:020000040000fa
:04030800c802000027
:020000040000fa
:04030c00c802000023
:020000040000fa
:04031000c80200001f
:020000040000fa
:04031400c80200001b
:020000040000fa
:04031800c802000017
:020000040000fa
:04031c00c802000013
:020000040000fa
:04032000c80200000f
:020000040000fa
:04032400c80200000b
:020000040000fa
:04032800c802000007
:020000040000fa
:04032c00c802000003
:020000040000fa
:04033000c8020000ff
:020000040000fa
:04033400c8020000fb
:020000040000fa
:04033800c8020000f7
:020000040000fa
:04033c00c8020000f3
:020000040000fa
:04034000c8020000ef
:020000040000fa
:04034400c8020000eb
:020000040000fa
:04034800c8020000e7
:020000040000fa
:100400002f8020000e7f22000e01880000000000d7
:10041000000020000000e000020032000001200087
:1004200020028800140007005b0007000000e000c5
:1004300003003a004077200001002000020037004e
:100440000000200001002000810f70000100320038
:1004500014000700000020000000e000020032004d
:1004600000000200000000002e0502000000000055
:100470000040da000000fe004440a9000001200016
:100480000000e0000300320000002000a00188000e
:100490004440a800000006008a1f78008b1f7800e7
:1004a0000000060091018800800478000000eb0045
:1004b0001a003700e284440032a0b4009905ba0063
:1004c000e284440032a0b4009906ba00e2844400f9
:1004d00032a0b4000006eb00476fde00fd07b2005b
:1004e000636ce10003003a00ebff07000000eb0043
:1004f0000a003700606ce10004003a00005deb0088
:100500008b05e900fdff3e00040037006168e10053
:10051000010032000086eb000b00070019c7ba008b
:100520001905ba000e04e00003003a000a00e000da
:10053000e0ff3a0000000600fe07b2009e018800be
:100540008a047800f5ff3700395dba008b05e900b1
:100550000c003200295dba008b05e900080032006a
:100560000c00e00003003a00e284440032a0b40032
:10057000f5ff370019ddba008b05e900faff3a00f4
:100580008904e800e184440032a0b40000000600c1
:0c0590000040da000000fe000000050042
:020000040000fa
:10059c003132000033410000343500003642000097
:1005ac0037380000394300002a3000002344000093
:020000040000fa
:1005bc000000fa00213a8000f08f2f0000806000cc
:1005cc00203a8800f0ff29006019880000002f00f5
:1005dc0040168800c0ff2000601688000080fa00da
:1005ec00000006000400fa00004f78001107980084
:1005fc0061168000f0ff200001007000601688007a
:10060c001e00fb006101b90020fd2f00f1ff2f003f
:10061c000200400083804800620320000300200099
:10062c00820f5000838f58008d003e000060010047
:10063c00860037008a003700340037003800370056
:10064c003c003700400037004400370048003700ba
:10065c004c0037005000370054003700580037006a
:10066c007f0037007e0037007d0037007c003700ac
:10067c007b0037007a0037007900370055003700cf
:10068c00770037005d0037007500370065003700d4
:10069c0069003700720037007100370070003700b6
:1006ac006f0037006e0037006d0037006c003700ac
:1006bc006b0037006a0037006900370068003700ac
:1006cc0067003700660037006500370064003700ac
:1006dc0063003700620037006100370060003700ac
:1006ec005f0037005e0037005d0037005c003700ac
:1006fc005b0037005a0037005900370058003700ac
:10070c003900370056003700410037006116800071
:10071c00c0002f0000806000601688005200370077
:10072c0061168000c0272f000080600060168800d2
:10073c004d0037006116800040092f0000806000da
:10074c0060168800480037006116800040032f00b7
:10075c00008060006016880043003700611680003e
:10076c0040262f0000806000601688003e00370095
:10077c006116800040122f00008060006016880017
:10078c00390037006116800040102f000080600097
:10079c00601688003400370061168000c0072f00f7
:1007ac0000806000601688002f0037006116800002
:1007bc0040002f0000806000601688002a0037007f
:1007cc006116800040022f000080600060168800d7
:1007dc00250037006116800040042f000080600067
:1007ec0060168800200037006116800040302f0012
:1007fc0000806000601688001b00370061168000c6
:10080c00c0182f00008060006016880016003700aa
:10081c006116800040212f00008060006016880067
:10082c00110037006116800040182f000080600016
:10083c00601688000c00370061168000401c2f00e9
:10084c000080600060168800070037006116800089
:10085c00b03f2f0000806000601688000200370057
:10086c0060168000601688001e009000e10f50009a
:10087c0004003a006016800000b0a00060168800ea
:10088c00030037006016800000a0a00060168800ee
:10089c000080fa00000006000400fa00100798001f
:1008ac000000eb00000f78000000eb00000f780058
:1008bc0002003700860107001e0fe8001e009000a2
:1008cc009e007800808f5000faff34000080fa0000
:1008dc00000006000000fa008000eb0000c3b3002b
:1008ec0040ff0700007d2000ebff070011002000f7
:1008fc0010c3b3003bff0700803e2000e6ff07005b
:10090c008000eb0020c3b30036ff0700803e2000c0
:10091c00e1ff07001100200030c3b30031ff0700d6
:10092c00803e2000dcff07008000eb0040c3b300da
:10093c002cff0700803e2000d7ff0700110020008d
:10094c0050c3b30027ff0700803e2000d2ff0700f2
:10095c008000eb0060c3b30022ff0700803e200044
:10096c00cdff07001100200070c3b3001dff07006e
:10097c00803e2000c8ff07008000eb0080c3b3005e
:10098c0018ff0700803e2000c3ff07001100200065
:10099c0090c3b30013ff0700803e2000beff07008a
:1009ac008000eb0010c4b3000eff0700803e200057
:1009bc00b9ff07001100200020c6b30009ff070093
:1009cc00803e2000b4ff07008000eb0030c4b30071
:1009dc0004ff0700803e2000afff0700110020003d
:1009ec0040c6b300fffe0700803e2000aaff0700b0
:1009fc008000eb0050c4b300fafe0700803e2000dc
:100a0c00a5ff07001100200060c4b300f5fe07002d
:100a1c00803e2000a0ff07008000eb00e0c2b30086
:100a2c00f0fe0700803e20009bff07000080fa00cc
:100a3c00000006000000fa00213a8000f08f2f0021
:100a4c0000806000203a88000080fa000000060058
:100a5c000000fa00f7ff0700d5fe0700a70007000b
:100a6c0061168000000027000100700060168800ed
:100a7c006016800000c0a1006016880050002000a5
:100a8c0085ff070010168000680060000000e00081
:100a9c0004003a001100200010c3b300d1fe07007f
:100aac001700370010168000640060000000e000a2
:100abc0004003a001100200020c3b300c9fe070057
:100acc000f00370010168000620060000000e0008c
:100adc0004003a001100200030c3b300c1fe07002f
:100aec000700370010168000610060000000e00075
:100afc0003003a001100200010c4b300b9fe070037
:100b0c005000200064ff07006116800000002f00d9
:100b1c0001007000601688006016800000d0a100f3
:100b2c0060168800500020005bff07001016800044
:100b3c00680060000000e00004003a001100200092
:100b4c0040c3b300a7fe0700170037001016800043
:100b5c00640060000000e00004003a001100200076
:100b6c0050c3b3009ffe07000f0037001016800023
:100b7c00620060000000e00004003a001100200058
:100b8c0060c3b30097fe0700070037001016800003
:100b9c00610060000000e00003003a00110020003a
:100bac0020c6b3008ffe07006116800000002f00e6
:100bbc0001007000601688006016800000e0a10043
:100bcc00601688005000200033ff070010168000cc
:100bdc00680060000000e00004003a0011002000f2
:100bec0070c3b3007ffe070017003700101680009b
:100bfc00640060000000e00004003a0011002000d6
:100c0c0080c3b30077fe07000f003700101680007a
:100c1c00620060000000e00004003a0011002000b7
:100c2c0090c3b3006ffe070007003700101680005a
:100c3c00610060000000e00003003a001100200099
:100c4c0030c4b30067fe07006116800000002f005f
:100c5c0001007000601688006016800000f0a10092
:100c6c0060168800500020000bff07001016800053
:100c7c00680060000000e00004003a001100200051
:100c8c0050c4b30057fe0700170037001016800041
:100c9c00640060000000e00004003a001100200035
:100cac0000c3b3004ffe07000f0037001016800082
:100cbc00620060000000e00004003a001100200017
:100ccc0060c4b30047fe0700070037001016800011
:100cdc00610060000000e00003003a0011002000f9
:100cec0040c6b3003ffe07006116800000002f00d5
:100cfc00010070006016880059ff37000000fa00f0
:100d0c000080eb006019880000168000f000b30032
:100d1c000016880041168000f0ff20000080600063
:100d2c00401688006840a8006860a8006ba0a80066
:100d3c006bc0a8006116800000002f00010070003d
:100d4c00601688000080fa00000006000600fa0019
:100d5c002007980010002000000f78000000eb0026
:100d6c00100798000c003700101680001e00600061
:100d7c000000e00002003a001e0090000a0037005c
:100d8c001e00780000004000000f78001e0090004c
:100d9c000000e800100798001e009000e30f5000c0
:100dac00f1ff34000080eb000080fa000000060028
:100dbc000600fa00f0ff2700000f78000000eb009f
:100dcc0020079800270037006116800000002f00d4
:100ddc000100700060168800601680001e00600024
:100dec00601688002e009000d8ff070010079800ae
:100dfc00004080009e009000808f50000f00320059
:100e0c002e009000d1ff0700100798001e009000e4
:100e1c000000e0000900350061168000f0ff2000a2
:100e2c0000806000601688002e009000c200dd007b
:100e3c001e009000008040000e0037009e009000c5
:100e4c00014088001e0078000000d100800078006e
:100e5c0001f0a000010f78002e0090000000e800c7
:100e6c00200798002e009000e30f5000d6ff3400ae
:100e7c000080eb000080fa00000006001200fa006f
:100e8c00000f9800e12c28000f000900315f78005a
:100e9c000e01b1000e089000ef0f500004003c0052
:100eac000e08900000004700104078000100370049
:100ebc000040eb000080fa0000000600793e0900bb
:100ecc0000000000390609000000000000000600c8
:0c0edc000a0009000000000000000600f1
:020000040000fa
:100ee800000800000200000002000000ffff0000f0
:040ef80000000000f6
:020000040000fa
:020000040001f9
:0457f8000ff90000a5
:020000040000fa
:020000040001f9
:0457fc007f3f0000eb
:00000001FF
