:020000040000fa
:080000000002040000000000f2
:020000040000fa
:04000800520300009f
:020000040000fa
:04000c00520300009b
:020000040000fa
:040010005203000097
:020000040000fa
:040014005203000093
:020000040000fa
:04001800520300008f
:020000040000fa
:04001c00520300008b
:020000040000fa
:040020005203000087
:020000040000fa
:040024005203000083
:020000040000fa
:04002800520300007f
:020000040000fa
:04002c00c802000006
:020000040000fa
:040030005203000077
:020000040000fa
:040034005203000073
:020000040000fa
:04003800520300006f
:020000040000fa
:04003c00520300006b
:020000040000fa
:040040005203000067
:020000040000fa
:04004400380300007d
:020000040000fa
:04004800520300005f
:020000040000fa
:04004c00520300005b
:020000040000fa
:040050005203000057
:020000040000fa
:040054005203000053
:020000040000fa
:04005800520300004f
:020000040000fa
:04005c00520300004b
:020000040000fa
:040060005203000047
:020000040000fa
:040064005203000043
:020000040000fa
:04006800520300003f
:020000040000fa
:04006c00520300003b
:020000040000fa
:040070005203000037
:020000040000fa
:040074005203000033
:020000040000fa
:04007800520300002f
:020000040000fa
:04007c00520300002b
:020000040000fa
:040080005203000027
:020000040000fa
:040084005203000023
:020000040000fa
:04008800520300001f
:020000040000fa
:04008c00520300001b
:020000040000fa
:040090005203000017
:020000040000fa
:040094005203000013
:020000040000fa
:04009800520300000f
:020000040000fa
:04009c00520300000b
:020000040000fa
:0400a0005203000007
:020000040000fa
:0400a4005203000003
:020000040000fa
:0400a80052030000ff
:020000040000fa
:0400ac0052030000fb
:020000040000fa
:0400b00052030000f7
:020000040000fa
:0400b40052030000f3
:020000040000fa
:0400b80052030000ef
:020000040000fa
:0400bc0052030000eb
:020000040000fa
:0400c00052030000e7
:020000040000fa
:0400c40052030000e3
:020000040000fa
:0400c80052030000df
:020000040000fa
:0400cc0052030000db
:020000040000fa
:0400d00052030000d7
:020000040000fa
:0400d40052030000d3
:020000040000fa
:0400d80052030000cf
:020000040000fa
:0400dc0052030000cb
:020000040000fa
:0400e00052030000c7
:020000040000fa
:0400e40052030000c3
:020000040000fa
:0400e80052030000bf
:020000040000fa
:0400ec0052030000bb
:020000040000fa
:0400f00052030000b7
:020000040000fa
:0400f40052030000b3
:020000040000fa
:0400f80052030000af
:020000040000fa
:0400fc0052030000ab
:020000040000fa
:0401000052030000a6
:020000040000fa
:0401040052030000a2
:020000040000fa
:04010800520300009e
:020000040000fa
:04010c00520300009a
:020000040000fa
:040110005203000096
:020000040000fa
:040114005203000092
:020000040000fa
:04011800520300008e
:020000040000fa
:04011c00520300008a
:020000040000fa
:040120005203000086
:020000040000fa
:040124005203000082
:020000040000fa
:04012800520300007e
:020000040000fa
:04012c00520300007a
:020000040000fa
:040130005203000076
:020000040000fa
:040134005203000072
:020000040000fa
:04013800520300006e
:020000040000fa
:04013c00520300006a
:020000040000fa
:040140005203000066
:020000040000fa
:040144005203000062
:020000040000fa
:04014800520300005e
:020000040000fa
:04020800520300009d
:020000040000fa
:04020c005203000099
:020000040000fa
:040210005203000095
:020000040000fa
:040214005203000091
:020000040000fa
:04021800520300008d
:020000040000fa
:04021c005203000089
:020000040000fa
:040220005203000085
:020000040000fa
:040224005203000081
:020000040000fa
:04022800520300007d
:020000040000fa
:04022c00c802000004
:020000040000fa
:040230005203000075
:020000040000fa
:040234005203000071
:020000040000fa
:04023800520300006d
:020000040000fa
:04023c005203000069
:020000040000fa
:040240005203000065
:020000040000fa
:04024400380300007b
:020000040000fa
:04024800520300005d
:020000040000fa
:04024c005203000059
:020000040000fa
:040250005203000055
:020000040000fa
:040254005203000051
:020000040000fa
:04025800520300004d
:020000040000fa
:04025c005203000049
:020000040000fa
:040260005203000045
:020000040000fa
:040264005203000041
:020000040000fa
:04026800520300003d
:020000040000fa
:04026c005203000039
:020000040000fa
:040270005203000035
:020000040000fa
:040274005203000031
:020000040000fa
:04027800520300002d
:020000040000fa
:04027c005203000029
:020000040000fa
:040280005203000025
:020000040000fa
:040284005203000021
:020000040000fa
:04028800520300001d
:020000040000fa
:04028c005203000019
:020000040000fa
:040290005203000015
:020000040000fa
:040294005203000011
:020000040000fa
:04029800520300000d
:020000040000fa
:04029c005203000009
:020000040000fa
:0402a0005203000005
:020000040000fa
:0402a4005203000001
:020000040000fa
:0402a80052030000fd
:020000040000fa
:0402ac0052030000f9
:020000040000fa
:0402b00052030000f5
:020000040000fa
:0402b40052030000f1
:020000040000fa
:0402b80052030000ed
:020000040000fa
:0402bc0052030000e9
:020000040000fa
:0402c00052030000e5
:020000040000fa
:0402c40052030000e1
:020000040000fa
:0402c80052030000dd
:020000040000fa
:0402cc0052030000d9
:020000040000fa
:0402d00052030000d5
:020000040000fa
:0402d40052030000d1
:020000040000fa
:0402d80052030000cd
:020000040000fa
:0402dc0052030000c9
:020000040000fa
:0402e00052030000c5
:020000040000fa
:0402e40052030000c1
:020000040000fa
:0402e80052030000bd
:020000040000fa
:0402ec0052030000b9
:020000040000fa
:0402f00052030000b5
:020000040000fa
:0402f40052030000b1
:020000040000fa
:0402f80052030000ad
:020000040000fa
:0402fc0052030000a9
:020000040000fa
:0403000052030000a4
:020000040000fa
:0403040052030000a0
:020000040000fa
:04030800520300009c
:020000040000fa
:04030c005203000098
:020000040000fa
:040310005203000094
:020000040000fa
:040314005203000090
:020000040000fa
:04031800520300008c
:020000040000fa
:04031c005203000088
:020000040000fa
:040320005203000084
:020000040000fa
:040324005203000080
:020000040000fa
:04032800520300007c
:020000040000fa
:04032c005203000078
:020000040000fa
:040330005203000074
:020000040000fa
:040334005203000070
:020000040000fa
:04033800520300006c
:020000040000fa
:04033c005203000068
:020000040000fa
:040340005203000064
:020000040000fa
:040344005203000060
:020000040000fa
:04034800520300005c
:020000040000fa
:10040000ef8320000e7f22000e0188000000000014
:10041000000020000000e000020032000001200087
:100420002002880014000700a00007000000e00080
:1004300003003a00008e2000010020000200370077
:100440000000200001002000810f70000100320038
:1004500014000700000020000000e000020032004d
:100460000000020000000000ee0702000000000093
:100470000040da000000fe004440a9000000200017
:100480000000e0000300320000002000a00188000e
:100490004440a800000006008a1f78008b1f7800e7
:1004a0000000060091018800800478000000eb0045
:1004b0001a003700e284440032a0b4009905ba0063
:1004c000e284440032a0b4009906ba00e2844400f9
:1004d00032a0b4000006eb00476fde00fd07b2005b
:1004e000636ce10003003a00ebff07000000eb0043
:1004f0000a003700606ce10004003a00005deb0088
:100500008b05e900fdff3e00040037006168e10053
:10051000010032000086eb000b00070019c7ba008b
:100520001905ba000e04e00003003a000a00e000da
:10053000e0ff3a0000000600fe07b2009e018800be
:100540008a047800f5ff3700395dba008b05e900b1
:100550000c003200295dba008b05e900080032006a
:100560000c00e00003003a00e284440032a0b40032
:10057000f5ff370019ddba008b05e900faff3a00f4
:100580008904e800e184440032a0b40000000600c1
:100590003600f800809fbe00829fbe00849fbe0090
:1005a000869fbe003400f80000002000a0018800f3
:1005b0000400fa008420a900000a80006101b8004c
:1005c000600880008000e800404080000088b9009a
:1005d000000078008000eb000200400083804800ab
:1005e000008fbe001e017800104080002140800076
:1005f00000007800000051000040880001408000a9
:10060000d0072000808f5000100036001e01be0071
:10061000124088002340880030408000e10f5000e5
:1006200006003a000628ef001040800021408000bc
:1006300000007800c001070005003700100020000e
:10064000304088000000000001003700000000007a
:100650000080fa003400f9004f03be004f02be00d4
:100660004f01be004f00be003600f90000400600fa
:10067000801f78003400f80000002000a0018800ee
:100680000000fa0084e0a900404080000000e8007b
:10069000404088000080fa003400f9004f007800e4
:1006a000004006000040da000000fe0000000500e7
:1006b0000001be00210007000470a70003f0a100a4
:1006c0006509b100160032000d0035006828e10010
:1006d00006003500f0ff2f00f1ff27000300e000c7
:1006e00013003b000100280000000500000040004e
:1006f000818048008502e900fcff3a0008003700cd
:10070000f88f420002003c008000eb000000050072
:100710008100d1000080d3008502e800fcff3a0090
:100720000300e00002003b0060001000e0801800c1
:10073000000006006011b8001a013700c70ade0089
:10074000f107b200f50fb20008003200e1cf42001d
:10075000020032000170a00024000500810f70002b
:10076000010032000408050044000500810f7000fc
:1007700002003a00140005008502e9000000400074
:1007800081c04800fcff3b000170a0002400050070
:10079000590107000400be00000006000383680042
:1007a0000700280007036300470ade000480a10059
:1007b000c71ade000580a100f70f20000720e10026
:1007c000420032000728e10040003200889fbe004e
:1007d0008a9fbe008c1f7800f107b200f307b200b9
:1007e0000400e000640032000170a0000500e00099
:1007f000680032000370a00085054200eb07b100dd
:100800000204b8000302b8008484440060854a00f2
:10081000020ab800848444000a854a00030ab8002a
:1008200004054500040033000804d0008984d20088
:100830000a85d2008b05e9006158e1003d003500d2
:100840000210200009016100030820008981610075
:10085000f70720008783640008867300c84cde0019
:10086000c853dd00878474004855de000300e000b3
:100870000600320082037600040032008904e8009a
:1008800060054d000a88a3000c003a00f70f200015
:100890000758e10044003d000a70a100c75ddd007b
:1008a0000a8575008a007300090078004f067800f9
:1008b0004f05be004f04be00000006000a05d1002f
:1008c0008984d3008b05e800f0ff3700881f78008b
:1008d0000604780090000700070278000001fd0080
:1008e0008101fd008c0007008702780085037200fb
:1008f0000778a300050032000001fd008101fd0022
:100900009f0007004f047800000006008503720076
:100910000748a30003003200f0ff2f00f1ff27007b
:10092000f8ff37000000200001f8270088807000e1
:10093000f4ff3700880178004848dd0080817100ad
:100940004848de00c850dd0001007000c850de00dd
:10095000060478000b0178001600070088807000fc
:10096000d2ff37000500e00005003200170020002c
:100970003a0007009dff370081037000f9ff3a003d
:10098000860078004f0678004f05be004f04be0079
:100990000000050083037100f9ff320027002000ea
:1009a0002e00070094ff370001f8270086807000b2
:1009b000f4ff37000100e000260032006101110061
:1009c0007810e10023003c006022b8007010e100c4
:1009d0000400350080027800010078008000eb0000
:1009e000700151000200e0000900340070031100a2
:1009f000062add00822ade008603dd00878272007f
:100a00000200de00860bdd00070070008208de00b9
:100a100084817100f4ff27000482620084817100e8
:100a200004002800848262006102600005f0a600d4
:100a30000000060004827100070032000000e80098
:100a4000e0804800000006000002be006000b80020
:100a5000efff37006000b80000000600889fbe006e
:100a60000004eb006138e10016003a000100e000ec
:100a700008003a00c800de004800dd0088002000c1
:100a80000100e00003003a00c800de004800dd007d
:100a9000680444008184cf00e984540006003400d7
:100aa0008908dd00f08314008703de008780700072
:100ab0000900dd0009044400610214004f04be0077
:100ac000000006000300e00008003a00c811de0044
:100ad0004811dd00880020000300e00003003a0018
:100ae000c811de004811dd00680444008384cf0093
:100af000e9845400060034008919dd00f0831400f5
:100b00008713de00878171000911dd0009044400ac
:100b1000e1021400e9ff37002700200001f0a700e0
:100b200017002000470bde00f60fb2000400320071
:100b30000643e8000a0032004702b3000000060046
:100b400001037800f607b2000603700002003a00c5
:100b50000703b300000006008702b3000000060090
:100b600001037800f607b2000603700002003200ad
:100b70000770a000000006000760a000000006004b
:100b80000478a300040032000578a30003003200bb
:100b90000168a30001003a000200be000160a0004d
:100ba00000000600889fbe008a9fbe000082700081
:100bb0000402710004827100260032000004be00ad
:100bc0000200be006011b8006b09200095022000f1
:100bd0000182cf000a0039000541b1000082cf0038
:100be000070039000541b1000982cf000400390037
:100bf0000541b1000882cf00010039000541b10074
:100c000005425200120032000a003b00828171004e
:100c1000610164008100d1000080d3008984d30089
:100c20000884d3008b05e8000442e800f7ff3a008f
:100c3000070037000804440089844c000000480085
:100c4000818048008b05e9000442e900f9ff3a0081
:100c5000030007004f05be004f04be000000060061
:100c600081002000618055000b003d000b0020003a
:100c700061fe2f000100e1001d003400828171003f
:100c8000610164008904d1000884d3000000e800f9
:100c9000faff3a0071002000610064000300700058
:100ca000020060000900320061044400e0844c004e
:100cb0000988a500050032008b05e8006808e100fe
:100cc00002003a008904d1000884d300f20f20000a
:100cd0000258e10005003d00c75ddd00f907b200e4
:100ce0008980750008007800000006000bf82700d6
:100cf0008b007800000005006022b800060220008a
:100d00000000d0008180d2000482d2008582d2000f
:100d10000000a0000202520083825a00030031004a
:100d20000202420083824a000000a1000603e9009b
:080d3000f3ff3a000000060089
:020000040000fa
:100d38000200fa00000f7800b0408000c140800037
:100d48001e017800cf91de0000027800c222dd008b
:100d58002483200004824200028abe006100400011
:100d6800e0804800b0408800c1408800b040800062
:100d7800c1408000320020000300200082fe0700ee
:100d8800b0408800c14088000080fa0000000600da
:100d98000200fa00d0408000e1408000c201dd007e
:100da80022832000028141001201be00020f780058
:100db80061004000e0804800d0408800e1408800a1
:100dc800d0408000e1408000320020000300200075
:100dd8006dfe0700d0408800e14088001e007800c2
:100de8000080fa00000006000000fa00213a8000a6
:100df800f08f2f0000806000203a88000080eb0010
:100e0800601988000080fa00000006000000fa005f
:100e1800c8c2a900113a8000f00b200000816000d0
:100e280060042000710520002374200080497800a8
:100e380081497800824978003136800000fe2f0011
:100e4800008060002001b30030368800103a80002e
:100e5800000178000260a0006004200071052000f5
:100e680023742000804978008149780082497800fd
:100e78008421ef008461a800210c800080ff2f00ee
:100e8800008060006000b300200c88001221ef0091
:100e980091088000f0fc2f00008060000040a00056
:100ea800900888000a21ef00f0c329007008880024
:100eb8008500a9009500a80013e1a8000080fa00a9
:100ec800000006000200fa00000f78000200370058
:100ed8007e3e0900000000001e00780000f0a70018
:100ee8000000ea000000ea004f00de000040780041
:100ef8001e0fe9000004e000f5ff3a000080fa0048
:100f0800000006000200fa00000f78001e007800ba
:100f1800000c88000080fa00000006000000fa00bb
:100f2800c902a8006ac0a800113a8000f00b20008e
:100f380000816000600420007105200023742000f7
:100f480080497800814978008249780071348000ae
:100f580000fe2f00008060000030a0007034880080
:100f6800103a8000000178000260a00060042000b0
:100f78007105200023742000804978008149780099
:100f8800824978001021ef008108800000032000ca
:100f9800010070008008880030422f006008880037
:100fa80084e0a90094e0a80042e1a800110a8000aa
:100fb80080ff2f00008060000000a000100a880059
:100fc8008420a9009420a80011e1a8000080fa005c
:100fd800000006000400fa0083ff07008bff0700eb
:100fe800ceff0700404080008000eb0042422f0007
:100ff8000289b900020178006002b9008401780012
:101008000301410043422f000300b80001014100e1
:1010180082007800320880008001eb000000410067
:10102800818049005041880061418800b2408000b9
:10103800c3408000d0408000e1408000800f510014
:10104800818f59002c00320051ff0700cf80de004d
:10105800f0408800014188004dff0700cf80de0086
:10106800104188002141880049ff0700cf80de0039
:101078003041880041418800304180004141800072
:1010880000017800104180002141800000007800b4
:1010980000005100000f78001041800021418000bd
:1010a80000017800f04080000141800000007800d5
:1010b800000051001007980090d023009e0078008f
:1010c800808f50000c003c009e00900090d02300c0
:1010d800808f500008003c000000200001e0230041
:1010e80070418800814188000000eb00000f780003
:1010f8000000eb0010079800524180006341800017
:101108003041800041418000000151008181590037
:1011180070842e0011002000800f5100818f59002b
:1011280016003600d0cc2c00c1cc230070418800ba
:10113800814188001428ef0009003700a040800092
:10114800c200dd0020832000008140006000b8005c
:101158000089be00a04080000000e800a040880090
:10116800a0408000e20f5000f4ff34001a28ef007e
:101178001c28ef001628ef001828ef0070088000e0
:101188008000eb0069fd07000002be00704180008e
:10119800814180000001be000400be007dfd070003
:1011a80041fd07000000780056ff070040012000bd
:0811b80044ff07008bff370024
:020000040000fa
:1011c000320800000c0000000000000000080000d1
:1011d0002e000000000000002e08000004000000a7
:1011e00002000000cdcccc003c000000000000005c
:020000040000fa
:020000040001f9
:0457f8000ff90000a5
:020000040000fa
:020000040001f9
:0457fc007f3f0000eb
:00000001FF
