:020000040000fa
:080000000002040000000000f2
:020000040000fa
:04000800e202000010
:020000040000fa
:04000c00e20200000c
:020000040000fa
:04001000e202000008
:020000040000fa
:04001400e202000004
:020000040000fa
:04001800e202000000
:020000040000fa
:04001c00e2020000fc
:020000040000fa
:04002000e2020000f8
:020000040000fa
:04002400e2020000f4
:020000040000fa
:04002800e2020000f0
:020000040000fa
:04002c00e2020000ec
:020000040000fa
:04003000e2020000e8
:020000040000fa
:04003400e2020000e4
:020000040000fa
:04003800e2020000e0
:020000040000fa
:04003c00e2020000dc
:020000040000fa
:04004000e2020000d8
:020000040000fa
:04004400c8020000ee
:020000040000fa
:04004800e2020000d0
:020000040000fa
:04004c00e2020000cc
:020000040000fa
:04005000e2020000c8
:020000040000fa
:04005400e2020000c4
:020000040000fa
:04005800e2020000c0
:020000040000fa
:04005c00e2020000bc
:020000040000fa
:04006000e2020000b8
:020000040000fa
:04006400e2020000b4
:020000040000fa
:04006800e2020000b0
:020000040000fa
:04006c00e2020000ac
:020000040000fa
:04007000e2020000a8
:020000040000fa
:04007400e2020000a4
:020000040000fa
:04007800e2020000a0
:020000040000fa
:04007c00e20200009c
:020000040000fa
:04008000e202000098
:020000040000fa
:04008400e202000094
:020000040000fa
:04008800e202000090
:020000040000fa
:04008c00e20200008c
:020000040000fa
:04009000e202000088
:020000040000fa
:04009400e202000084
:020000040000fa
:04009800e202000080
:020000040000fa
:04009c00e20200007c
:020000040000fa
:0400a000e202000078
:020000040000fa
:0400a400e202000074
:020000040000fa
:0400a800e202000070
:020000040000fa
:0400ac00e20200006c
:020000040000fa
:0400b000e202000068
:020000040000fa
:0400b400e202000064
:020000040000fa
:0400b800e202000060
:020000040000fa
:0400bc00e20200005c
:020000040000fa
:0400c000e202000058
:020000040000fa
:0400c400e202000054
:020000040000fa
:0400c800e202000050
:020000040000fa
:0400cc00e20200004c
:020000040000fa
:0400d000e202000048
:020000040000fa
:0400d400e202000044
:020000040000fa
:0400d800e202000040
:020000040000fa
:0400dc00e20200003c
:020000040000fa
:0400e000e202000038
:020000040000fa
:0400e400e202000034
:020000040000fa
:0400e800e202000030
:020000040000fa
:0400ec00e20200002c
:020000040000fa
:0400f000e202000028
:020000040000fa
:0400f400e202000024
:020000040000fa
:0400f800e202000020
:020000040000fa
:0400fc00e20200001c
:020000040000fa
:04010000e202000017
:020000040000fa
:04010400e202000013
:020000040000fa
:04010800e20200000f
:020000040000fa
:04010c00e20200000b
:020000040000fa
:04011000e202000007
:020000040000fa
:04011400e202000003
:020000040000fa
:04011800e2020000ff
:020000040000fa
:04011c00e2020000fb
:020000040000fa
:04012000e2020000f7
:020000040000fa
:04012400e2020000f3
:020000040000fa
:04012800e2020000ef
:020000040000fa
:04012c00e2020000eb
:020000040000fa
:04013000e2020000e7
:020000040000fa
:04013400e2020000e3
:020000040000fa
:04013800e2020000df
:020000040000fa
:04013c00e2020000db
:020000040000fa
:04014000e2020000d7
:020000040000fa
:04014400e2020000d3
:020000040000fa
:04014800e2020000cf
:020000040000fa
:04020800e20200000e
:020000040000fa
:04020c00e20200000a
:020000040000fa
:04021000e202000006
:020000040000fa
:04021400e202000002
:020000040000fa
:04021800e2020000fe
:020000040000fa
:04021c00e2020000fa
:020000040000fa
:04022000e2020000f6
:020000040000fa
:04022400e2020000f2
:020000040000fa
:04022800e2020000ee
:020000040000fa
:04022c00e2020000ea
:020000040000fa
:04023000e2020000e6
:020000040000fa
:04023400e2020000e2
:020000040000fa
:04023800e2020000de
:020000040000fa
:04023c00e2020000da
:020000040000fa
:04024000e2020000d6
:020000040000fa
:04024400c8020000ec
:020000040000fa
:04024800e2020000ce
:020000040000fa
:04024c00e2020000ca
:020000040000fa
:04025000e2020000c6
:020000040000fa
:04025400e2020000c2
:020000040000fa
:04025800e2020000be
:020000040000fa
:04025c00e2020000ba
:020000040000fa
:04026000e2020000b6
:020000040000fa
:04026400e2020000b2
:020000040000fa
:04026800e2020000ae
:020000040000fa
:04026c00e2020000aa
:020000040000fa
:04027000e2020000a6
:020000040000fa
:04027400e2020000a2
:020000040000fa
:04027800e20200009e
:020000040000fa
:04027c00e20200009a
:020000040000fa
:04028000e202000096
:020000040000fa
:04028400e202000092
:020000040000fa
:04028800e20200008e
:020000040000fa
:04028c00e20200008a
:020000040000fa
:04029000e202000086
:020000040000fa
:04029400e202000082
:020000040000fa
:04029800e20200007e
:020000040000fa
:04029c00e20200007a
:020000040000fa
:0402a000e202000076
:020000040000fa
:0402a400e202000072
:020000040000fa
:0402a800e20200006e
:020000040000fa
:0402ac00e20200006a
:020000040000fa
:0402b000e202000066
:020000040000fa
:0402b400e202000062
:020000040000fa
:0402b800e20200005e
:020000040000fa
:0402bc00e20200005a
:020000040000fa
:0402c000e202000056
:020000040000fa
:0402c400e202000052
:020000040000fa
:0402c800e20200004e
:020000040000fa
:0402cc00e20200004a
:020000040000fa
:0402d000e202000046
:020000040000fa
:0402d400e202000042
:020000040000fa
:0402d800e20200003e
:020000040000fa
:0402dc00e20200003a
:020000040000fa
:0402e000e202000036
:020000040000fa
:0402e400e202000032
:020000040000fa
:0402e800e20200002e
:020000040000fa
:0402ec00e20200002a
:020000040000fa
:0402f000e202000026
:020000040000fa
:0402f400e202000022
:020000040000fa
:0402f800e20200001e
:020000040000fa
:0402fc00e20200001a
:020000040000fa
:04030000e202000015
:020000040000fa
:04030400e202000011
:020000040000fa
:04030800e20200000d
:020000040000fa
:04030c00e202000009
:020000040000fa
:04031000e202000005
:020000040000fa
:04031400e202000001
:020000040000fa
:04031800e2020000fd
:020000040000fa
:04031c00e2020000f9
:020000040000fa
:04032000e2020000f5
:020000040000fa
:04032400e2020000f1
:020000040000fa
:04032800e2020000ed
:020000040000fa
:04032c00e2020000e9
:020000040000fa
:04033000e2020000e5
:020000040000fa
:04033400e2020000e1
:020000040000fa
:04033800e2020000dd
:020000040000fa
:04033c00e2020000d9
:020000040000fa
:04034000e2020000d5
:020000040000fa
:04034400e2020000d1
:020000040000fa
:04034800e2020000cd
:020000040000fa
:100400006f8020000e7f22000e0188000000000097
:10041000000020000000e000020032000001200087
:100420002002880014000700680007000000e000b8
:1004300003003a00c07420000100200002003700d1
:100440000000200001002000810f70000100320038
:1004500014000700000020000000e000020032004d
:10046000000002000000000004070200000000007d
:100470000040da000000fe004440a9000000200017
:100480000000e0000300320000002000a00188000e
:100490004440a800000006008a1f78008b1f7800e7
:1004a0000000060091018800800478000000eb0045
:1004b0001a003700e284440032a0b4009905ba0063
:1004c000e284440032a0b4009906ba00e2844400f9
:1004d00032a0b4000006eb00476fde00fd07b2005b
:1004e000636ce10003003a00ebff07000000eb0043
:1004f0000a003700606ce10004003a00005deb0088
:100500008b05e900fdff3e00040037006168e10053
:10051000010032000086eb000b00070019c7ba008b
:100520001905ba000e04e00003003a000a00e000da
:10053000e0ff3a0000000600fe07b2009e018800be
:100540008a047800f5ff3700395dba008b05e900b1
:100550000c003200295dba008b05e900080032006a
:100560000c00e00003003a00e284440032a0b40032
:10057000f5ff370019ddba008b05e900faff3a00f4
:100580008904e800e184440032a0b40000000600c1
:10059000801f78003400f80000002000a0018800cf
:1005a0000000fa00204080000000e80020408800a1
:1005b00084e0a9000080fa003400f9004f007800c0
:1005c000004006000040da000000fe0000000500c8
:1005d000140020003a0137000001be00210007008e
:1005e0000470a70003f0a1006509b10016003200f5
:1005f0000d0035006828e10006003500f0ff2f00ef
:10060000f1ff27000300e00013003b000100280079
:100610000000050000004000818048008502e900dc
:10062000fcff3a0008003700f88f420002003c004f
:100630008000eb00000005008100d1000080d300a5
:100640008502e800fcff3a000300e00002003b00e6
:1006500060001000e0801800000006006011b80083
:1006600032013700c70ade00f107b200f50fb20011
:1006700008003200e1cf4200020032000170a00009
:1006800024000500810f70000100320004080500fd
:1006900044000500810f700002003a0014000500bc
:1006a0008502e9000000400081c04800fcff3b00db
:1006b0000170a000240005000383680007002800e3
:1006c00007036300470ade000480a100c71ade00aa
:1006d0000580a100f70f20000720e1004200320052
:1006e0000728e10040003200889fbe008a9fbe00bc
:1006f0008c1f7800f107b200f307b2000400e0009d
:10070000640032000170a0000500e00068003200c3
:100710000370a00085054200eb07b1000204b80099
:100720000302b8008484440060854a00020ab800cd
:10073000848444000a854a00030ab8000405450081
:10074000040033000804d0008984d2000a85d20056
:100750008b05e9006158e1003d00350002102000e2
:10076000090161000308200089816100f70720006a
:100770008783640008867300c84cde00c853dd0020
:10078000878474004855de000300e0000600320054
:1007900082037600040032008904e80060054d0001
:1007a0000a88a3000c003a00f70f20000758e10068
:1007b00044003d000a70a100c75ddd000a85750098
:1007c0008a007300090078004f0678004f05be00cc
:1007d0004f04be00000006000a05d1008984d30042
:1007e0008b05e800f0ff3700881f780006047800ca
:1007f00090000700070278000001fd008101fd0064
:100800008c00070087027800850372000778a30038
:10081000050032000001fd008101fd009f0007007e
:100820004f04780000000600850372000748a3000b
:1008300003003200f0ff2f00f1ff2700f8ff370020
:100840000000200001f8270088807000f4ff3700c6
:10085000880178004848dd00808171004848de004a
:10086000c850dd0001007000c850de0006047800aa
:100870000b0178001600070088807000d2ff370057
:100880000500e00005003200170020003a000700d4
:100890009dff370081037000f9ff3a008600780061
:1008a0004f0678004f05be004f04be000000050053
:1008b00083037100f9ff3200270020002e0007009b
:1008c00094ff370001f8270086807000f4ff37009e
:1008d0000100e00026003200610111007810e10003
:1008e00023003c006022b8007010e10004003500d5
:1008f00080027800010078008000eb007001510058
:100900000200e0000900340070031100062add0037
:10091000822ade008603dd00878272000200de008c
:10092000860bdd00070070008208de008481710004
:10093000f4ff270004826200848171000400280013
:10094000848262006102600005f0a60000000600db
:1009500004827100070032000000e800e0804800d7
:10096000000006000002be006000b800efff370084
:100970006000b80000000600889fbe000004eb0085
:100980006138e10016003a000100e00008003a007a
:10099000c800de004800dd00880020000100e00003
:1009a00003003a00c800de004800dd00680444008f
:1009b0008184cf00e9845400060034008908dd00fa
:1009c000f08314008703de00878070000900dd00db
:1009d00009044400610214004f04be000000060038
:1009e0000300e00008003a00c811de004811dd00f5
:1009f000880020000300e00003003a00c811de0078
:100a00004811dd00680444008384cf00e984540069
:100a1000060034008919dd00f08314008713de001e
:100a2000878171000911dd0009044400e10214000e
:100a3000e9ff37002700200001f0a7001700200081
:100a4000470bde00f60fb200040032000643e80058
:100a50000a0032004702b3000000060001037800dc
:100a6000f607b2000603700002003a000703b30065
:100a7000000006008702b3000000060001037800b2
:100a8000f607b20006037000020032000770a000f3
:100a9000000006000760a000000006000478a30024
:100aa000040032000578a300030032000168a300af
:100ab00001003a000200be000160a0000000060034
:100ac000889fbe008a9fbe00841f78006c000700cc
:100ad0004f00780011003300f0ff2f00838f6c006f
:100ae00006003b00040565000a00a7000800370067
:100af00009f0a6001000200008003700820f540003
:100b0000838f5c00030039001000200001003e00cc
:100b10000000200009f0a7000000ea004f05be0019
:100b20004f04be000000e00000000600889fbe00e9
:100b30008a9fbe000082700004027100048271006e
:100b4000260032000004be000200be006011b800a2
:100b50006b092000950220000182cf000a003900b5
:100b60000541b1000082cf00070039000541b10006
:100b70000982cf00040039000541b1000882cf008e
:100b8000010039000541b100054252001200320057
:100b90000a003b0082817100610164008100d10084
:100ba0000080d3008984d3000884d3008b05e8003b
:100bb0000442e800f7ff3a00070037000804440049
:100bc00089844c0000004800818048008b05e900c2
:100bd0000442e900f9ff3a00030007004f05be0098
:100be0004f04be0000000600810020006180550017
:100bf0000b003d000b00200061fe2f000100e10012
:100c00001d00340082817100610164008904d100fb
:100c10000884d3000000e800faff3a0071002000c9
:100c200061006400030070000200600009003200ef
:100c300061044400e0844c000988a50005003200ee
:100c40008b05e8006808e10002003a008904d10041
:100c50000884d300f20f20000258e10005003d0097
:100c6000c75ddd00f907b2008980750008007800d3
:100c7000000006000bf827008b007800000005003c
:100c80000004be0077fe07000003be000405be009e
:100c90000200be0073fe0700844f750000000600ce
:020000040000fa
:100ca0000000fa00213a8000f08f2f0000806000e1
:100cb000203a88000080eb00601988000080fa006c
:100cc000000006000000fa00c8c2a900113a800026
:100cd000f00b2000008160006004200071052000fe
:100ce0002374200080497800814978008249780087
:100cf0003136800000fe2f00008060002001b3002c
:100d000030368800103a8000000178000260a000b0
:100d100060042000710520002374200080497800c1
:100d200081497800824978008421ef008461a8001d
:100d3000210c800080ff2f00008060006000b30065
:100d4000200c88001221ef0091088000f0fc2f0099
:100d5000008060000040a000900888000a21ef0099
:100d6000f0c329007008880013e1a8000080fa0091
:100d7000000006000200fa00000f780002003700b1
:100d80007e3e0900000000001e00780000f0a70071
:100d90000000ea000000ea004f00de00004078009a
:100da0001e0fe9000004e000f5ff3a000080fa00a1
:100db000000006000200fa00000f78001e00780014
:100dc000000c88000080fa00000006000000fa0015
:100dd000c902a8006ac0a8001021ef0081088000a5
:100de00000032000010070008008880030422f00be
:100df0006008880084e0a90094e0a80011e1a80040
:100e00000080fa00000006000400fa00a4ff0700ba
:100e1000acff0700edff07000000200001e0230009
:100e2000008fbe005116800000102000008060007e
:100e30000000e0000d003a00d2cc2c00c3cc23000f
:100e40001e00be00e2fd07000000e00004003a00c2
:100e50000000200001e02300008fbe0003003700e7
:100e6000d0cc2c00c1cc2300008fbe0070088000c5
:100e70008000eb00f9fd07001e01be000efe07001a
:100e8000d5fd070000007800caff070040012000e0
:080e9000b8ff0700e3ff370083
:020000040000fa
:100e98000408000002000000000000000008000034
:100ea8000400000002000000010001000000000032
:040eb8000000000036
:020000040000fa
:020000040001f9
:0457f8000ff90000a5
:020000040000fa
:020000040001f9
:0457fc007f3f0000eb
:00000001FF
